{
  "contractName": "Voting",
  "abi": [
    {
      "anonymous": false,
      "inputs": [
        {
          "indexed": true,
          "internalType": "address",
          "name": "previousOwner",
          "type": "address"
        },
        {
          "indexed": true,
          "internalType": "address",
          "name": "newOwner",
          "type": "address"
        }
      ],
      "name": "OwnershipTransferred",
      "type": "event"
    },
    {
      "anonymous": false,
      "inputs": [
        {
          "indexed": false,
          "internalType": "uint256",
          "name": "proposalId",
          "type": "uint256"
        }
      ],
      "name": "ProposalRegistered",
      "type": "event"
    },
    {
      "anonymous": false,
      "inputs": [
        {
          "indexed": false,
          "internalType": "address",
          "name": "voter",
          "type": "address"
        },
        {
          "indexed": false,
          "internalType": "uint256",
          "name": "proposalId",
          "type": "uint256"
        }
      ],
      "name": "Voted",
      "type": "event"
    },
    {
      "anonymous": false,
      "inputs": [
        {
          "indexed": false,
          "internalType": "address",
          "name": "voter",
          "type": "address"
        }
      ],
      "name": "VoterAdded",
      "type": "event"
    },
    {
      "anonymous": false,
      "inputs": [
        {
          "indexed": false,
          "internalType": "enum Voting.WorkflowStatus",
          "name": "previousStatus",
          "type": "uint8"
        },
        {
          "indexed": false,
          "internalType": "enum Voting.WorkflowStatus",
          "name": "newStatus",
          "type": "uint8"
        }
      ],
      "name": "WorkflowStatusChange",
      "type": "event"
    },
    {
      "inputs": [],
      "name": "owner",
      "outputs": [
        {
          "internalType": "address",
          "name": "",
          "type": "address"
        }
      ],
      "stateMutability": "view",
      "type": "function",
      "constant": true
    },
    {
      "inputs": [],
      "name": "renounceOwnership",
      "outputs": [],
      "stateMutability": "nonpayable",
      "type": "function"
    },
    {
      "inputs": [
        {
          "internalType": "address",
          "name": "newOwner",
          "type": "address"
        }
      ],
      "name": "transferOwnership",
      "outputs": [],
      "stateMutability": "nonpayable",
      "type": "function"
    },
    {
      "inputs": [],
      "name": "winningProposal",
      "outputs": [
        {
          "internalType": "string",
          "name": "description",
          "type": "string"
        },
        {
          "internalType": "uint256",
          "name": "voteCount",
          "type": "uint256"
        }
      ],
      "stateMutability": "view",
      "type": "function",
      "constant": true
    },
    {
      "inputs": [],
      "name": "resetVote",
      "outputs": [],
      "stateMutability": "nonpayable",
      "type": "function"
    },
    {
      "inputs": [
        {
          "internalType": "address",
          "name": "_address",
          "type": "address"
        }
      ],
      "name": "registerVoters",
      "outputs": [],
      "stateMutability": "nonpayable",
      "type": "function"
    },
    {
      "inputs": [],
      "name": "getVotersAdresses",
      "outputs": [
        {
          "internalType": "address[]",
          "name": "",
          "type": "address[]"
        }
      ],
      "stateMutability": "view",
      "type": "function",
      "constant": true
    },
    {
      "inputs": [
        {
          "internalType": "address",
          "name": "_address",
          "type": "address"
        }
      ],
      "name": "getVoter",
      "outputs": [
        {
          "components": [
            {
              "internalType": "bool",
              "name": "isRegistered",
              "type": "bool"
            },
            {
              "internalType": "bool",
              "name": "hasVoted",
              "type": "bool"
            },
            {
              "internalType": "uint256",
              "name": "votedProposalId",
              "type": "uint256"
            }
          ],
          "internalType": "struct Voting.Voter",
          "name": "",
          "type": "tuple"
        }
      ],
      "stateMutability": "view",
      "type": "function",
      "constant": true
    },
    {
      "inputs": [],
      "name": "startProposalsRegistration",
      "outputs": [],
      "stateMutability": "nonpayable",
      "type": "function"
    },
    {
      "inputs": [
        {
          "internalType": "string",
          "name": "proposalDescription",
          "type": "string"
        }
      ],
      "name": "registerProposal",
      "outputs": [],
      "stateMutability": "nonpayable",
      "type": "function"
    },
    {
      "inputs": [],
      "name": "getProposals",
      "outputs": [
        {
          "components": [
            {
              "internalType": "string",
              "name": "description",
              "type": "string"
            },
            {
              "internalType": "uint256",
              "name": "voteCount",
              "type": "uint256"
            }
          ],
          "internalType": "struct Voting.Proposal[]",
          "name": "",
          "type": "tuple[]"
        }
      ],
      "stateMutability": "view",
      "type": "function",
      "constant": true
    },
    {
      "inputs": [],
      "name": "stopProposalsRegistration",
      "outputs": [],
      "stateMutability": "nonpayable",
      "type": "function"
    },
    {
      "inputs": [],
      "name": "startVotingSession",
      "outputs": [],
      "stateMutability": "nonpayable",
      "type": "function"
    },
    {
      "inputs": [
        {
          "internalType": "uint256",
          "name": "_proposalId",
          "type": "uint256"
        }
      ],
      "name": "voteForProposal",
      "outputs": [],
      "stateMutability": "nonpayable",
      "type": "function"
    },
    {
      "inputs": [],
      "name": "stopVotingSession",
      "outputs": [],
      "stateMutability": "nonpayable",
      "type": "function"
    },
    {
      "inputs": [],
      "name": "countVotes",
      "outputs": [
        {
          "internalType": "string",
          "name": "",
          "type": "string"
        }
      ],
      "stateMutability": "nonpayable",
      "type": "function"
    },
    {
      "inputs": [
        {
          "internalType": "address",
          "name": "voterAddress",
          "type": "address"
        }
      ],
      "name": "getVote",
      "outputs": [
        {
          "internalType": "uint256",
          "name": "",
          "type": "uint256"
        }
      ],
      "stateMutability": "view",
      "type": "function",
      "constant": true
    },
    {
      "inputs": [],
      "name": "getCurrentWorkflowStatus",
      "outputs": [
        {
          "internalType": "enum Voting.WorkflowStatus",
          "name": "",
          "type": "uint8"
        }
      ],
      "stateMutability": "view",
      "type": "function",
      "constant": true
    }
  ],
  "bytecode": "0x608060405260008060146101000a81548160ff021916908360058111156200002357fe5b02179055503480156200003557600080fd5b50600062000051620000f5640100000000026401000000009004565b9050806000806101000a81548173ffffffffffffffffffffffffffffffffffffffff021916908373ffffffffffffffffffffffffffffffffffffffff1602179055508073ffffffffffffffffffffffffffffffffffffffff16600073ffffffffffffffffffffffffffffffffffffffff167f8be0079c531659141344cd1fd0a4f28419497f9722a3daafe3b4186f6b6457e060405160405180910390a350620000fd565b600033905090565b612bf4806200010d6000396000f3fe608060405234801561001057600080fd5b5060043610610133576000357c0100000000000000000000000000000000000000000000000000000000900480638da5cb5b116100bf578063d4f50f981161008e578063d4f50f981461027d578063e09b8c79146102ad578063ed8a1608146102b7578063ee74c678146102d3578063f2fde38b146102dd57610133565b80638da5cb5b14610205578063af7c41a014610223578063b647990a14610241578063bd0434d41461025f57610133565b806353302887116101065780635330288714610184578063609ff1bd1461018e57806362564c48146101ad578063715018a6146101cb5780638d337b81146101d557610133565b8063045c6ce01461013857806317a0ad8e146101545780632f95355b1461015e578063329a8cfa1461017a575b600080fd5b610152600480360381019061014d9190611d4b565b6102f9565b005b61015c61058c565b005b61017860048036038101906101739190611d0a565b610696565b005b61018261087e565b005b61018c610a44565b005b610196610b4e565b6040516101a492919061270f565b60405180910390f35b6101b5610bf8565b6040516101c29190612687565b60405180910390f35b6101d3610d03565b005b6101ef60048036038101906101ea9190611ce1565b610e58565b6040516101fc919061297a565b60405180910390f35b61020d610fb8565b60405161021a9190612621565b60405180910390f35b61022b610fe1565b60405161023891906126a9565b60405180910390f35b610249610ff7565b60405161025691906126ed565b60405180910390f35b6102676111a4565b6040516102749190612665565b60405180910390f35b61029760048036038101906102929190611ce1565b611232565b6040516102a4919061295f565b60405180910390f35b6102b56112cb565b005b6102d160048036038101906102cc9190611ce1565b61141a565b005b6102db611705565b005b6102f760048036038101906102f29190611ce1565b61180f565b005b600560003373ffffffffffffffffffffffffffffffffffffffff1673ffffffffffffffffffffffffffffffffffffffff16815260200190815260200160002060000160009054906101000a900460ff16610388576040517f08c379a000000000000000000000000000000000000000000000000000000000815260040161037f906127ff565b60405180910390fd5b600560003373ffffffffffffffffffffffffffffffffffffffff1673ffffffffffffffffffffffffffffffffffffffff16815260200190815260200160002060000160019054906101000a900460ff1615610418576040517f08c379a000000000000000000000000000000000000000000000000000000000815260040161040f9061287f565b60405180910390fd5b6003600581111561042557fe5b600060149054906101000a900460ff16600581111561044057fe5b14610480576040517f08c379a00000000000000000000000000000000000000000000000000000000081526004016104779061283f565b60405180910390fd5b6001600560003373ffffffffffffffffffffffffffffffffffffffff1673ffffffffffffffffffffffffffffffffffffffff16815260200190815260200160002060000160016101000a81548160ff02191690831515021790555080600560003373ffffffffffffffffffffffffffffffffffffffff1673ffffffffffffffffffffffffffffffffffffffff168152602001908152602001600020600101819055506003818154811061052f57fe5b9060005260206000209060020201600101600081548092919060010191905055507f4d99b957a2bc29a30ebd96a7be8e68fe50a3c701db28a91436490b7d53870ca4338260405161058192919061263c565b60405180910390a150565b6105946119d3565b73ffffffffffffffffffffffffffffffffffffffff166000809054906101000a900473ffffffffffffffffffffffffffffffffffffffff1673ffffffffffffffffffffffffffffffffffffffff1614610622576040517f08c379a00000000000000000000000000000000000000000000000000000000081526004016106199061291f565b60405180910390fd5b6003600581111561062f57fe5b600060149054906101000a900460ff16600581111561064a57fe5b1461068a576040517f08c379a0000000000000000000000000000000000000000000000000000000008152600401610681906128bf565b60405180910390fd5b61069460046119db565b565b6064600380549050106106de576040517f08c379a00000000000000000000000000000000000000000000000000000000081526004016106d5906128ff565b60405180910390fd5b600560003373ffffffffffffffffffffffffffffffffffffffff1673ffffffffffffffffffffffffffffffffffffffff16815260200190815260200160002060000160009054906101000a900460ff1661076d576040517f08c379a0000000000000000000000000000000000000000000000000000000008152600401610764906127ff565b60405180910390fd5b6001600581111561077a57fe5b600060149054906101000a900460ff16600581111561079557fe5b146107d5576040517f08c379a00000000000000000000000000000000000000000000000000000000081526004016107cc9061275f565b60405180910390fd5b60036040518060400160405280838152602001600081525090806001815401808255809150506001900390600052602060002090600202016000909190919091506000820151816000019080519060200190610832929190611a4e565b506020820151816001015550507f92e393e9b54e2f801d3ea4beb0c5e71a21cc34a5d34b77d0fb8a3aa1650dc18f600380549050604051610873919061297a565b60405180910390a150565b6108866119d3565b73ffffffffffffffffffffffffffffffffffffffff166000809054906101000a900473ffffffffffffffffffffffffffffffffffffffff1673ffffffffffffffffffffffffffffffffffffffff1614610914576040517f08c379a000000000000000000000000000000000000000000000000000000000815260040161090b9061291f565b60405180910390fd5b60008060146101000a81548160ff0219169083600581111561093257fe5b021790555060016000808201600061094a9190611ace565b60018201600090555050600360006109629190611b16565b60008090505b600480549050811015610a2b57600560006004838154811061098657fe5b9060005260206000200160009054906101000a900473ffffffffffffffffffffffffffffffffffffffff1673ffffffffffffffffffffffffffffffffffffffff1673ffffffffffffffffffffffffffffffffffffffff168152602001908152602001600020600080820160006101000a81549060ff02191690556000820160016101000a81549060ff0219169055600182016000905550508080600101915050610968565b60046000610a399190611b3a565b600060068190555050565b610a4c6119d3565b73ffffffffffffffffffffffffffffffffffffffff166000809054906101000a900473ffffffffffffffffffffffffffffffffffffffff1673ffffffffffffffffffffffffffffffffffffffff1614610ada576040517f08c379a0000000000000000000000000000000000000000000000000000000008152600401610ad19061291f565b60405180910390fd5b60016005811115610ae757fe5b600060149054906101000a900460ff166005811115610b0257fe5b14610b42576040517f08c379a0000000000000000000000000000000000000000000000000000000008152600401610b399061293f565b60405180910390fd5b610b4c60026119db565b565b6001806000018054600181600116156101000203166002900480601f016020809104026020016040519081016040528092919081815260200182805460018160011615610100020316600290048015610be85780601f10610bbd57610100808354040283529160200191610be8565b820191906000526020600020905b815481529060010190602001808311610bcb57829003601f168201915b5050505050908060010154905082565b60606003805480602002602001604051908101604052809291908181526020016000905b82821015610cfa5783829060005260206000209060020201604051806040016040529081600082018054600181600116156101000203166002900480601f016020809104026020016040519081016040528092919081815260200182805460018160011615610100020316600290048015610cd85780601f10610cad57610100808354040283529160200191610cd8565b820191906000526020600020905b815481529060010190602001808311610cbb57829003601f168201915b5050505050815260200160018201548152505081526020019060010190610c1c565b50505050905090565b610d0b6119d3565b73ffffffffffffffffffffffffffffffffffffffff166000809054906101000a900473ffffffffffffffffffffffffffffffffffffffff1673ffffffffffffffffffffffffffffffffffffffff1614610d99576040517f08c379a0000000000000000000000000000000000000000000000000000000008152600401610d909061291f565b60405180910390fd5b600073ffffffffffffffffffffffffffffffffffffffff166000809054906101000a900473ffffffffffffffffffffffffffffffffffffffff1673ffffffffffffffffffffffffffffffffffffffff167f8be0079c531659141344cd1fd0a4f28419497f9722a3daafe3b4186f6b6457e060405160405180910390a360008060006101000a81548173ffffffffffffffffffffffffffffffffffffffff021916908373ffffffffffffffffffffffffffffffffffffffff160217905550565b6000600560003373ffffffffffffffffffffffffffffffffffffffff1673ffffffffffffffffffffffffffffffffffffffff16815260200190815260200160002060000160009054906101000a900460ff16610ee9576040517f08c379a0000000000000000000000000000000000000000000000000000000008152600401610ee09061285f565b60405180910390fd5b6000600560008473ffffffffffffffffffffffffffffffffffffffff1673ffffffffffffffffffffffffffffffffffffffff1681526020019081526020016000206001015411610f6e576040517f08c379a0000000000000000000000000000000000000000000000000000000008152600401610f65906128df565b60405180910390fd5b600560003373ffffffffffffffffffffffffffffffffffffffff1673ffffffffffffffffffffffffffffffffffffffff168152602001908152602001600020600101549050919050565b60008060009054906101000a900473ffffffffffffffffffffffffffffffffffffffff16905090565b60008060149054906101000a900460ff16905090565b60606110016119d3565b73ffffffffffffffffffffffffffffffffffffffff166000809054906101000a900473ffffffffffffffffffffffffffffffffffffffff1673ffffffffffffffffffffffffffffffffffffffff161461108f576040517f08c379a00000000000000000000000000000000000000000000000000000000081526004016110869061291f565b60405180910390fd5b6004600581111561109c57fe5b600060149054906101000a900460ff1660058111156110b757fe5b146110f7576040517f08c379a00000000000000000000000000000000000000000000000000000000081526004016110ee9061281f565b60405180910390fd5b600080600090505b60038054905081101561114357816003828154811061111a57fe5b9060005260206000209060020201600101541115611136578091505b80806001019150506110ff565b506003818154811061115157fe5b9060005260206000209060020201600160008201816000019080546001816001161561010002031660029004611188929190611b5b565b50600182015481600101559050506111a060056119db565b5090565b6060600480548060200260200160405190810160405280929190818152602001828054801561122857602002820191906000526020600020905b8160009054906101000a900473ffffffffffffffffffffffffffffffffffffffff1673ffffffffffffffffffffffffffffffffffffffff16815260200190600101908083116111de575b5050505050905090565b61123a611be2565b600560008373ffffffffffffffffffffffffffffffffffffffff1673ffffffffffffffffffffffffffffffffffffffff1681526020019081526020016000206040518060600160405290816000820160009054906101000a900460ff161515151581526020016000820160019054906101000a900460ff161515151581526020016001820154815250509050919050565b6112d36119d3565b73ffffffffffffffffffffffffffffffffffffffff166000809054906101000a900473ffffffffffffffffffffffffffffffffffffffff1673ffffffffffffffffffffffffffffffffffffffff1614611361576040517f08c379a00000000000000000000000000000000000000000000000000000000081526004016113589061291f565b60405180910390fd5b6000600581111561136e57fe5b600060149054906101000a900460ff16600581111561138957fe5b146113c9576040517f08c379a00000000000000000000000000000000000000000000000000000000081526004016113c0906127df565b60405180910390fd5b60026006541161140e576040517f08c379a00000000000000000000000000000000000000000000000000000000081526004016114059061289f565b60405180910390fd5b61141860016119db565b565b6114226119d3565b73ffffffffffffffffffffffffffffffffffffffff166000809054906101000a900473ffffffffffffffffffffffffffffffffffffffff1673ffffffffffffffffffffffffffffffffffffffff16146114b0576040517f08c379a00000000000000000000000000000000000000000000000000000000081526004016114a79061291f565b60405180910390fd5b600560008273ffffffffffffffffffffffffffffffffffffffff1673ffffffffffffffffffffffffffffffffffffffff16815260200190815260200160002060000160009054906101000a900460ff1615611540576040517f08c379a00000000000000000000000000000000000000000000000000000000081526004016115379061273f565b60405180910390fd5b6000600581111561154d57fe5b600060149054906101000a900460ff16600581111561156857fe5b146115a8576040517f08c379a000000000000000000000000000000000000000000000000000000000815260040161159f9061277f565b60405180910390fd5b6004819080600181540180825580915050600190039060005260206000200160009091909190916101000a81548173ffffffffffffffffffffffffffffffffffffffff021916908373ffffffffffffffffffffffffffffffffffffffff16021790555060405180606001604052806001151581526020016000151581526020016000815250600560008373ffffffffffffffffffffffffffffffffffffffff1673ffffffffffffffffffffffffffffffffffffffff16815260200190815260200160002060008201518160000160006101000a81548160ff02191690831515021790555060208201518160000160016101000a81548160ff021916908315150217905550604082015181600101559050506006600081548092919060010191905055507fa636f4a11e2d3ba7f89d042ecb0a6b886716e98cd49d8fd876ee0f73bced42b8816040516116fa9190612621565b60405180910390a150565b61170d6119d3565b73ffffffffffffffffffffffffffffffffffffffff166000809054906101000a900473ffffffffffffffffffffffffffffffffffffffff1673ffffffffffffffffffffffffffffffffffffffff161461179b576040517f08c379a00000000000000000000000000000000000000000000000000000000081526004016117929061291f565b60405180910390fd5b600260058111156117a857fe5b600060149054906101000a900460ff1660058111156117c357fe5b14611803576040517f08c379a00000000000000000000000000000000000000000000000000000000081526004016117fa906127bf565b60405180910390fd5b61180d60036119db565b565b6118176119d3565b73ffffffffffffffffffffffffffffffffffffffff166000809054906101000a900473ffffffffffffffffffffffffffffffffffffffff1673ffffffffffffffffffffffffffffffffffffffff16146118a5576040517f08c379a000000000000000000000000000000000000000000000000000000000815260040161189c9061291f565b60405180910390fd5b600073ffffffffffffffffffffffffffffffffffffffff168173ffffffffffffffffffffffffffffffffffffffff161415611915576040517f08c379a000000000000000000000000000000000000000000000000000000000815260040161190c9061279f565b60405180910390fd5b8073ffffffffffffffffffffffffffffffffffffffff166000809054906101000a900473ffffffffffffffffffffffffffffffffffffffff1673ffffffffffffffffffffffffffffffffffffffff167f8be0079c531659141344cd1fd0a4f28419497f9722a3daafe3b4186f6b6457e060405160405180910390a3806000806101000a81548173ffffffffffffffffffffffffffffffffffffffff021916908373ffffffffffffffffffffffffffffffffffffffff16021790555050565b600033905090565b60008060149054906101000a900460ff16905081600060146101000a81548160ff02191690836005811115611a0c57fe5b02179055507f0a97a4ee45751e2abf3e4fc8946939630b11b371ea8ae39ccdc3056e98f5cc3f8183604051611a429291906126c4565b60405180910390a15050565b828054600181600116156101000203166002900490600052602060002090601f016020900481019282601f10611a8f57805160ff1916838001178555611abd565b82800160010185558215611abd579182015b82811115611abc578251825591602001919060010190611aa1565b5b509050611aca9190611c07565b5090565b50805460018160011615610100020316600290046000825580601f10611af45750611b13565b601f016020900490600052602060002090810190611b129190611c07565b5b50565b5080546000825560020290600052602060002090810190611b379190611c2c565b50565b5080546000825590600052602060002090810190611b589190611c07565b50565b828054600181600116156101000203166002900490600052602060002090601f016020900481019282601f10611b945780548555611bd1565b82800160010185558215611bd157600052602060002091601f016020900482015b82811115611bd0578254825591600101919060010190611bb5565b5b509050611bde9190611c07565b5090565b6040518060600160405280600015158152602001600015158152602001600081525090565b611c2991905b80821115611c25576000816000905550600101611c0d565b5090565b90565b611c6091905b80821115611c5c5760008082016000611c4b9190611ace565b600182016000905550600201611c32565b5090565b90565b600081359050611c7281612b90565b92915050565b600082601f830112611c8957600080fd5b8135611c9c611c97826129c2565b612995565b91508082526020830160208301858383011115611cb857600080fd5b611cc3838284612b30565b50505092915050565b600081359050611cdb81612ba7565b92915050565b600060208284031215611cf357600080fd5b6000611d0184828501611c63565b91505092915050565b600060208284031215611d1c57600080fd5b600082013567ffffffffffffffff811115611d3657600080fd5b611d4284828501611c78565b91505092915050565b600060208284031215611d5d57600080fd5b6000611d6b84828501611ccc565b91505092915050565b6000611d808383611daf565b60208301905092915050565b6000611d988383612584565b905092915050565b611da981612ae8565b82525050565b611db881612a8d565b82525050565b611dc781612a8d565b82525050565b6000611dd882612a0e565b611de28185612a49565b9350611ded836129ee565b8060005b83811015611e1e578151611e058882611d74565b9750611e1083612a2f565b925050600181019050611df1565b5085935050505092915050565b6000611e3682612a19565b611e408185612a5a565b935083602082028501611e52856129fe565b8060005b85811015611e8e5784840389528151611e6f8582611d8c565b9450611e7a83612a3c565b925060208a01995050600181019050611e56565b50829750879550505050505092915050565b611ea981612a9f565b82525050565b611eb881612afa565b82525050565b6000611ec982612a24565b611ed38185612a6b565b9350611ee3818560208601612b3f565b611eec81612b72565b840191505092915050565b6000611f0282612a24565b611f0c8185612a7c565b9350611f1c818560208601612b3f565b611f2581612b72565b840191505092915050565b6000611f3d602283612a7c565b91507f546865206164647265737320697320616c72656164792072656769737465726560008301527f64210000000000000000000000000000000000000000000000000000000000006020830152604082019050919050565b6000611fa3603283612a7c565b91507f50726f706f73616c7320526567697374726174696f6e20686173206e6f74207360008301527f746172746564206f7220697320656e64656400000000000000000000000000006020830152604082019050919050565b6000612009601b83612a7c565b91507f546f6f206c61746520746f20726567697374657220766f7465727300000000006000830152602082019050919050565b6000612049602683612a7c565b91507f4f776e61626c653a206e6577206f776e657220697320746865207a65726f206160008301527f64647265737300000000000000000000000000000000000000000000000000006020830152604082019050919050565b60006120af604e83612a7c565b91507f596f752063616e206f6e6c7920737461727420566f74696e672053657373696f60008301527f6e206f6e63652050726f706f73616c7320526567697374726174696f6e20686160208301527f73206265656e2073746f707065640000000000000000000000000000000000006040830152606082019050919050565b600061213b602e83612a7c565b91507f596f752063616e206f6e6c792073746172742050726f706f73616c732052656760008301527f697374726174696f6e206f6e63650000000000000000000000000000000000006020830152604082019050919050565b60006121a1602883612a7c565b91507f536f72727920796f752063616e277420706172746963697061746520746f207460008301527f68697320766f74650000000000000000000000000000000000000000000000006020830152604082019050919050565b6000612207602483612a7c565b91507f596f752073686f756c642073746f7020566f74696e672053657373696f6e206660008301527f69727374000000000000000000000000000000000000000000000000000000006020830152604082019050919050565b600061226d602a83612a7c565b91507f566f74696e672053657373696f6e20686173206e6f742073746172746564206f60008301527f7220697320656e646564000000000000000000000000000000000000000000006020830152604082019050919050565b60006122d3601983612a7c565b91507f536f72727920796f75277265206e6f74206120766f74657227000000000000006000830152602082019050919050565b6000612313602483612a7c565b91507f536f72727920796f752063616e6e6f7420766f7465206d6f7265207468616e2060008301527f6f6e6365000000000000000000000000000000000000000000000000000000006020830152604082019050919050565b6000612379603283612a7c565b91507f596f752073686f756c6420726567697374657220736f6d6520766f746572732060008301527f666972737420286174206c6561737420332900000000000000000000000000006020830152604082019050919050565b60006123df602583612a7c565b91507f596f752063616e206f6e6c792073746f7020566f74696e672053657373696f6e60008301527f206f6e63650000000000000000000000000000000000000000000000000000006020830152604082019050919050565b6000612445602083612a7c565b91507f5468697320766f74657220686173206e6f7420616c726561647920766f7465646000830152602082019050919050565b6000612485602e83612a7c565b91507f536f7272792077652063616e6e6f7420616363657074206d6f7265207468616e60008301527f203130302070726f706f73616c730000000000000000000000000000000000006020830152604082019050919050565b60006124eb602083612a7c565b91507f4f776e61626c653a2063616c6c6572206973206e6f7420746865206f776e65726000830152602082019050919050565b600061252b602d83612a7c565b91507f596f752063616e206f6e6c792073746f702050726f706f73616c73205265676960008301527f7374726174696f6e206f6e6365000000000000000000000000000000000000006020830152604082019050919050565b600060408301600083015184820360008601526125a18282611ebe565b91505060208301516125b66020860182612603565b508091505092915050565b6060820160008201516125d76000850182611ea0565b5060208201516125ea6020850182611ea0565b5060408201516125fd6040850182612603565b50505050565b61260c81612ade565b82525050565b61261b81612ade565b82525050565b60006020820190506126366000830184611dbe565b92915050565b60006040820190506126516000830185611da0565b61265e6020830184612612565b9392505050565b6000602082019050818103600083015261267f8184611dcd565b905092915050565b600060208201905081810360008301526126a18184611e2b565b905092915050565b60006020820190506126be6000830184611eaf565b92915050565b60006040820190506126d96000830185611eaf565b6126e66020830184611eaf565b9392505050565b600060208201905081810360008301526127078184611ef7565b905092915050565b600060408201905081810360008301526127298185611ef7565b90506127386020830184612612565b9392505050565b6000602082019050818103600083015261275881611f30565b9050919050565b6000602082019050818103600083015261277881611f96565b9050919050565b6000602082019050818103600083015261279881611ffc565b9050919050565b600060208201905081810360008301526127b88161203c565b9050919050565b600060208201905081810360008301526127d8816120a2565b9050919050565b600060208201905081810360008301526127f88161212e565b9050919050565b6000602082019050818103600083015261281881612194565b9050919050565b60006020820190508181036000830152612838816121fa565b9050919050565b6000602082019050818103600083015261285881612260565b9050919050565b60006020820190508181036000830152612878816122c6565b9050919050565b6000602082019050818103600083015261289881612306565b9050919050565b600060208201905081810360008301526128b88161236c565b9050919050565b600060208201905081810360008301526128d8816123d2565b9050919050565b600060208201905081810360008301526128f881612438565b9050919050565b6000602082019050818103600083015261291881612478565b9050919050565b60006020820190508181036000830152612938816124de565b9050919050565b600060208201905081810360008301526129588161251e565b9050919050565b600060608201905061297460008301846125c1565b92915050565b600060208201905061298f6000830184612612565b92915050565b6000604051905081810181811067ffffffffffffffff821117156129b857600080fd5b8060405250919050565b600067ffffffffffffffff8211156129d957600080fd5b601f19601f8301169050602081019050919050565b6000819050602082019050919050565b6000819050602082019050919050565b600081519050919050565b600081519050919050565b600081519050919050565b6000602082019050919050565b6000602082019050919050565b600082825260208201905092915050565b600082825260208201905092915050565b600082825260208201905092915050565b600082825260208201905092915050565b6000612a9882612abe565b9050919050565b60008115159050919050565b6000819050612ab982612b83565b919050565b600073ffffffffffffffffffffffffffffffffffffffff82169050919050565b6000819050919050565b6000612af382612b0c565b9050919050565b6000612b0582612aab565b9050919050565b6000612b1782612b1e565b9050919050565b6000612b2982612abe565b9050919050565b82818337600083830152505050565b60005b83811015612b5d578082015181840152602081019050612b42565b83811115612b6c576000848401525b50505050565b6000601f19601f8301169050919050565b60068110612b8d57fe5b50565b612b9981612a8d565b8114612ba457600080fd5b50565b612bb081612ade565b8114612bbb57600080fd5b5056fea26469706673582212204211062278720302d0138e9c95a9ae76bd87006d7247aecbf05a57e79cf5b7f964736f6c634300060b0033",
  "immutableReferences": {},
  "source": "// SPDX-License-Identifier: MIT\r\npragma solidity 0.6.11;\r\npragma experimental ABIEncoderV2;\r\n\r\nimport \"@OpenZeppelin/contracts/access/Ownable.sol\";\r\n\r\n/// @title Formation Alyra \"Dveloppeur Blockchain\" - Dfi - Systme de vote\r\n/// @author Jrme Gauthier\r\n/// @notice Mise en oeuvre d'un systme de vote simple\r\n/// @dev Par rapport  l'nonc initial j'ai simplement ajout la fonction resetVote()\r\n/// accessible par le owner du contract seulement\r\ncontract Voting is Ownable {\r\n\r\n    struct Voter {\r\n        bool isRegistered;\r\n        bool hasVoted;\r\n        uint votedProposalId;\r\n    }\r\n\r\n    struct Proposal {\r\n        string description;\r\n        uint voteCount;\r\n    }\r\n    \r\n    enum WorkflowStatus {\r\n        RegisteringVoters,\r\n        ProposalsRegistrationStarted,\r\n        ProposalsRegistrationEnded,\r\n        VotingSessionStarted,\r\n        VotingSessionEnded,\r\n        VotesTallied\r\n    }\r\n    \r\n    WorkflowStatus currentWorkflowStatus = WorkflowStatus.RegisteringVoters;\r\n    Proposal public winningProposal; // Tout le monde peut vrifier la proposition gagnante\r\n    Proposal[] private proposals; // we will use votedProposalId as key \r\n    address[] private votersAddresses;\r\n    mapping(address => Voter) voters;\r\n    uint numberOfVoters;\r\n    \r\n    // the following events are replaced with WorkflowStatusChange, enough\r\n    // event ProposalsRegistrationStarted(); // ok used in startProposalsRegistration function\r\n    // event ProposalsRegistrationEnded(); // ok used in stopProposalsRegistration function\r\n    // event VotingSessionStarted(); // ok used in startVotingSession function\r\n    // event VotingSessionEnded(); // ok used in stopVotingSession function\r\n    // event VotesTallied(); // ok used in countVotes function\r\n    event VoterAdded (address voter); // ok used in registerVoters function\r\n    event ProposalRegistered(uint proposalId); // ok used in registerProposal function \r\n    event Voted (address voter, uint proposalId); // ok used in voteForProposal function\r\n    event WorkflowStatusChange(WorkflowStatus previousStatus, WorkflowStatus newStatus);// used in setNewWorkflowStatus\r\n\r\n    function resetVote () public onlyOwner {\r\n        currentWorkflowStatus = WorkflowStatus.RegisteringVoters;\r\n        delete winningProposal;\r\n        delete proposals;\r\n        // to reset a mapping we need to delete its values, we cannot use the direct delete command\r\n        uint counter;\r\n        for (counter = 0; counter < votersAddresses.length; counter++) {\r\n           delete voters[votersAddresses[counter]];\r\n        }        \r\n        delete votersAddresses;\r\n        numberOfVoters = 0;\r\n    }\r\n    \r\n    /// @notice L'administrateur du vote enregistre une liste blanche d'lecteurs identifis par leur adresse Ethereum.\r\n    /// @dev onlyOwner pour que seul le owner du contract puisse enregistrer des lecteurs\r\n    /// @param _address l'adresse de l'lecteur\r\n    function registerVoters(address _address) public onlyOwner {\r\n        require(!voters[_address].isRegistered, \"The address is already registered!\");\r\n        require(currentWorkflowStatus == WorkflowStatus.RegisteringVoters, \"Too late to register voters\");\r\n        votersAddresses.push(_address);\r\n        voters[_address] = Voter(true, false, 0);\r\n        numberOfVoters++;\r\n        emit VoterAdded(_address);\r\n    }\r\n    \r\n    /// @notice Cette fonction permettra  la Dapp de lister visuellement tous les votants dclars\r\n    function getVotersAdresses() public view returns(address[] memory){\r\n        return votersAddresses;\r\n    }\r\n    \r\n    /// @notice Cette fonction permettra  la Dapp de savoir si l'adresse est enregistre et si elle a dj vot\r\n    function getVoter(address _address) public view returns(Voter memory) {\r\n        return voters[_address];\r\n    }\r\n    \r\n    /// @notice L'administrateur du vote commence la session d'enregistrement de la proposition.\r\n    function startProposalsRegistration() public onlyOwner {\r\n        require(currentWorkflowStatus == WorkflowStatus.RegisteringVoters,\r\n                \"You can only start Proposals Registration once\");\r\n        require(numberOfVoters > 2, \"You should register some voters first (at least 3)\");\r\n        setNewWorkflowStatus(WorkflowStatus.ProposalsRegistrationStarted);\r\n        // emit ProposalsRegistrationStarted();\r\n    }\r\n\r\n    /// @notice Les lecteurs inscrits sont autoriss  enregistrer leurs propositions\r\n    /// pendant que la session d'enregistrement est active.\r\n    function registerProposal(string memory proposalDescription) public {\r\n        require(proposals.length<100, \"Sorry we cannot accept more than 100 proposals\");\r\n        require(voters[msg.sender].isRegistered, \"Sorry you can't participate to this vote\");\r\n        require(currentWorkflowStatus == WorkflowStatus.ProposalsRegistrationStarted,\r\n                \"Proposals Registration has not started or is ended\");\r\n        proposals.push(Proposal(proposalDescription, 0));\r\n        emit ProposalRegistered(proposals.length);\r\n    }\r\n\r\n    /// @notice Cette fonction permettra  la Dapp de lister visuellement toutes les propositions effectues\r\n    function getProposals() public view returns(Proposal[] memory){\r\n        return proposals;\r\n    }\r\n\r\n    /// @notice L'administrateur de vote met fin  la session d'enregistrement des propositions.\r\n    function stopProposalsRegistration() public onlyOwner {\r\n        require(currentWorkflowStatus == WorkflowStatus.ProposalsRegistrationStarted,\r\n                \"You can only stop Proposals Registration once\");\r\n        setNewWorkflowStatus(WorkflowStatus.ProposalsRegistrationEnded);\r\n        // emit ProposalsRegistrationEnded();\r\n    }\r\n    \r\n    /// @notice L'administrateur du vote commence la session de vote.\r\n    function startVotingSession() public onlyOwner {\r\n        require(currentWorkflowStatus == WorkflowStatus.ProposalsRegistrationEnded,\r\n                \"You can only start Voting Session once Proposals Registration has been stopped\");\r\n        setNewWorkflowStatus(WorkflowStatus.VotingSessionStarted);\r\n        // emit VotingSessionStarted();\r\n    }\r\n\r\n    /// @notice Les lecteurs inscrits votent pour leurs propositions prfres.\r\n    function voteForProposal(uint _proposalId) public {\r\n        require(voters[msg.sender].isRegistered, \"Sorry you can't participate to this vote\");\r\n        require(!voters[msg.sender].hasVoted, \"Sorry you cannot vote more than once\");\r\n        require(currentWorkflowStatus == WorkflowStatus.VotingSessionStarted,\r\n                \"Voting Session has not started or is ended\");\r\n        voters[msg.sender].hasVoted = true;\r\n        voters[msg.sender].votedProposalId = _proposalId;\r\n        proposals[_proposalId].voteCount++; // increment the vote count for this proposal id\r\n        emit Voted(msg.sender, _proposalId);\r\n    }\r\n\r\n    /// @notice L'administrateur du vote met fin  la session de vote.\r\n    function stopVotingSession() public onlyOwner {\r\n        require(currentWorkflowStatus == WorkflowStatus.VotingSessionStarted, \"You can only stop Voting Session once\");\r\n        setNewWorkflowStatus(WorkflowStatus.VotingSessionEnded);\r\n        // emit VotingSessionEnded();\r\n    }\r\n\r\n    /// @notice L'administrateur du vote comptabilise les votes.\r\n    function countVotes() public onlyOwner returns (string memory) {\r\n        require(currentWorkflowStatus == WorkflowStatus.VotingSessionEnded, \"You should stop Voting Session first\");\r\n        uint winningProposalId;\r\n        for (uint currentProposalId = 0; currentProposalId < proposals.length; currentProposalId++) {\r\n            if (proposals[currentProposalId].voteCount > winningProposalId) {\r\n                winningProposalId = currentProposalId;\r\n            }\r\n        }        \r\n        winningProposal = proposals[winningProposalId];\r\n        setNewWorkflowStatus(WorkflowStatus.VotesTallied);\r\n        // emit VotesTallied();\r\n    }\r\n    \r\n    /// @notice Le vote n'est pas secret ; chaque lecteur peut voir les votes des autres.\r\n    function getVote(address voterAddress) public view returns (uint) {\r\n        require(voters[msg.sender].isRegistered, \"Sorry you're not a voter'\");\r\n        require(voters[voterAddress].votedProposalId > 0, \"This voter has not already voted\");\r\n        return  voters[msg.sender].votedProposalId;\r\n    }\r\n\r\n    /// @notice passage d'un statut  l'autre\r\n    function setNewWorkflowStatus (WorkflowStatus newWorkflowStatus) private {\r\n        WorkflowStatus previousWorkflowStatus = currentWorkflowStatus;\r\n        currentWorkflowStatus = newWorkflowStatus;\r\n        emit WorkflowStatusChange(previousWorkflowStatus, newWorkflowStatus);\r\n    }\r\n    \r\n    /// @notice Renvoit le statut courant du workflow\r\n    function getCurrentWorkflowStatus() public view returns (WorkflowStatus) {\r\n        return  currentWorkflowStatus;\r\n    }\r\n}",
  "sourcePath": "C:/Appli.crypto/Alyra-Challenges/system-de-vote/contracts/voting.sol",
  "compiler": {
    "name": "solc",
    "version": "0.6.11+commit.5ef660b1.Emscripten.clang"
  },
  "schemaVersion": "3.4.1",
  "updatedAt": "2021-07-08T20:04:46.535Z",
  "networkType": "ethereum",
  "devdoc": {
    "author": "Jrme Gauthier",
    "details": "Par rapport  l'nonc initial j'ai simplement ajout la fonction resetVote() accessible par le owner du contract seulement",
    "kind": "dev",
    "methods": {
      "owner()": {
        "details": "Returns the address of the current owner."
      },
      "registerVoters(address)": {
        "details": "onlyOwner pour que seul le owner du contract puisse enregistrer des lecteurs",
        "params": {
          "_address": "l'adresse de l'lecteur"
        }
      },
      "renounceOwnership()": {
        "details": "Leaves the contract without owner. It will not be possible to call `onlyOwner` functions anymore. Can only be called by the current owner. NOTE: Renouncing ownership will leave the contract without an owner, thereby removing any functionality that is only available to the owner."
      },
      "transferOwnership(address)": {
        "details": "Transfers ownership of the contract to a new account (`newOwner`). Can only be called by the current owner."
      }
    },
    "title": "Formation Alyra \"Dveloppeur Blockchain\" - Dfi - Systme de vote",
    "version": 1
  },
  "userdoc": {
    "kind": "user",
    "methods": {
      "countVotes()": {
        "notice": "L'administrateur du vote comptabilise les votes."
      },
      "getCurrentWorkflowStatus()": {
        "notice": "Renvoit le statut courant du workflow"
      },
      "getProposals()": {
        "notice": "Cette fonction permettra  la Dapp de lister visuellement toutes les propositions effectues"
      },
      "getVote(address)": {
        "notice": "Le vote n'est pas secret ; chaque lecteur peut voir les votes des autres."
      },
      "getVoter(address)": {
        "notice": "Cette fonction permettra  la Dapp de savoir si l'adresse est enregistre et si elle a dj vot"
      },
      "getVotersAdresses()": {
        "notice": "Cette fonction permettra  la Dapp de lister visuellement tous les votants dclars"
      },
      "registerProposal(string)": {
        "notice": "Les lecteurs inscrits sont autoriss  enregistrer leurs propositions pendant que la session d'enregistrement est active."
      },
      "registerVoters(address)": {
        "notice": "L'administrateur du vote enregistre une liste blanche d'lecteurs identifis par leur adresse Ethereum."
      },
      "startProposalsRegistration()": {
        "notice": "L'administrateur du vote commence la session d'enregistrement de la proposition."
      },
      "startVotingSession()": {
        "notice": "L'administrateur du vote commence la session de vote."
      },
      "stopProposalsRegistration()": {
        "notice": "L'administrateur de vote met fin  la session d'enregistrement des propositions."
      },
      "stopVotingSession()": {
        "notice": "L'administrateur du vote met fin  la session de vote."
      },
      "voteForProposal(uint256)": {
        "notice": "Les lecteurs inscrits votent pour leurs propositions prfres."
      }
    },
    "notice": "Mise en oeuvre d'un systme de vote simple",
    "version": 1
  }
}