{
  "contractName": "Voting",
  "abi": [
    {
      "anonymous": false,
      "inputs": [
        {
          "indexed": true,
          "internalType": "address",
          "name": "previousOwner",
          "type": "address"
        },
        {
          "indexed": true,
          "internalType": "address",
          "name": "newOwner",
          "type": "address"
        }
      ],
      "name": "OwnershipTransferred",
      "type": "event"
    },
    {
      "anonymous": false,
      "inputs": [
        {
          "indexed": false,
          "internalType": "uint256",
          "name": "proposalId",
          "type": "uint256"
        }
      ],
      "name": "ProposalRegistered",
      "type": "event"
    },
    {
      "anonymous": false,
      "inputs": [],
      "name": "ProposalsRegistrationEnded",
      "type": "event"
    },
    {
      "anonymous": false,
      "inputs": [],
      "name": "ProposalsRegistrationStarted",
      "type": "event"
    },
    {
      "anonymous": false,
      "inputs": [
        {
          "indexed": false,
          "internalType": "address",
          "name": "voter",
          "type": "address"
        },
        {
          "indexed": false,
          "internalType": "uint256",
          "name": "proposalId",
          "type": "uint256"
        }
      ],
      "name": "Voted",
      "type": "event"
    },
    {
      "anonymous": false,
      "inputs": [],
      "name": "VotesTallied",
      "type": "event"
    },
    {
      "anonymous": false,
      "inputs": [],
      "name": "VotingSessionEnded",
      "type": "event"
    },
    {
      "anonymous": false,
      "inputs": [],
      "name": "VotingSessionStarted",
      "type": "event"
    },
    {
      "anonymous": false,
      "inputs": [
        {
          "indexed": false,
          "internalType": "enum Voting.WorkflowStatus",
          "name": "previousStatus",
          "type": "uint8"
        },
        {
          "indexed": false,
          "internalType": "enum Voting.WorkflowStatus",
          "name": "newStatus",
          "type": "uint8"
        }
      ],
      "name": "WorkflowStatusChange",
      "type": "event"
    },
    {
      "inputs": [],
      "name": "owner",
      "outputs": [
        {
          "internalType": "address",
          "name": "",
          "type": "address"
        }
      ],
      "stateMutability": "view",
      "type": "function",
      "constant": true
    },
    {
      "inputs": [
        {
          "internalType": "uint256",
          "name": "",
          "type": "uint256"
        }
      ],
      "name": "proposals",
      "outputs": [
        {
          "internalType": "string",
          "name": "description",
          "type": "string"
        },
        {
          "internalType": "uint256",
          "name": "voteCount",
          "type": "uint256"
        }
      ],
      "stateMutability": "view",
      "type": "function",
      "constant": true
    },
    {
      "inputs": [],
      "name": "renounceOwnership",
      "outputs": [],
      "stateMutability": "nonpayable",
      "type": "function"
    },
    {
      "inputs": [
        {
          "internalType": "address",
          "name": "newOwner",
          "type": "address"
        }
      ],
      "name": "transferOwnership",
      "outputs": [],
      "stateMutability": "nonpayable",
      "type": "function"
    },
    {
      "inputs": [],
      "name": "winningProposal",
      "outputs": [
        {
          "internalType": "string",
          "name": "description",
          "type": "string"
        },
        {
          "internalType": "uint256",
          "name": "voteCount",
          "type": "uint256"
        }
      ],
      "stateMutability": "view",
      "type": "function",
      "constant": true
    },
    {
      "inputs": [],
      "name": "resetVote",
      "outputs": [],
      "stateMutability": "nonpayable",
      "type": "function"
    },
    {
      "inputs": [
        {
          "internalType": "address",
          "name": "_address",
          "type": "address"
        }
      ],
      "name": "registerVoters",
      "outputs": [],
      "stateMutability": "nonpayable",
      "type": "function"
    },
    {
      "inputs": [],
      "name": "startProposalsRegistration",
      "outputs": [],
      "stateMutability": "nonpayable",
      "type": "function"
    },
    {
      "inputs": [
        {
          "internalType": "string",
          "name": "proposalDescription",
          "type": "string"
        }
      ],
      "name": "registerProposal",
      "outputs": [],
      "stateMutability": "nonpayable",
      "type": "function"
    },
    {
      "inputs": [],
      "name": "stopProposalsRegistration",
      "outputs": [],
      "stateMutability": "nonpayable",
      "type": "function"
    },
    {
      "inputs": [],
      "name": "startVotingSession",
      "outputs": [],
      "stateMutability": "nonpayable",
      "type": "function"
    },
    {
      "inputs": [
        {
          "internalType": "uint256",
          "name": "_proposalId",
          "type": "uint256"
        }
      ],
      "name": "voteForProposal",
      "outputs": [],
      "stateMutability": "nonpayable",
      "type": "function"
    },
    {
      "inputs": [],
      "name": "stopVotingSession",
      "outputs": [],
      "stateMutability": "nonpayable",
      "type": "function"
    },
    {
      "inputs": [],
      "name": "countVotes",
      "outputs": [
        {
          "internalType": "string",
          "name": "",
          "type": "string"
        }
      ],
      "stateMutability": "nonpayable",
      "type": "function"
    },
    {
      "inputs": [
        {
          "internalType": "address",
          "name": "voterAddress",
          "type": "address"
        }
      ],
      "name": "getVote",
      "outputs": [
        {
          "internalType": "uint256",
          "name": "",
          "type": "uint256"
        }
      ],
      "stateMutability": "view",
      "type": "function",
      "constant": true
    }
  ],
  "bytecode": "0x608060405260008060146101000a81548160ff0219169083600581111561002257fe5b021790555034801561003357600080fd5b50600061004d6100f0640100000000026401000000009004565b9050806000806101000a81548173ffffffffffffffffffffffffffffffffffffffff021916908373ffffffffffffffffffffffffffffffffffffffff1602179055508073ffffffffffffffffffffffffffffffffffffffff16600073ffffffffffffffffffffffffffffffffffffffff167f8be0079c531659141344cd1fd0a4f28419497f9722a3daafe3b4186f6b6457e060405160405180910390a3506100f8565b600033905090565b61222b806101076000396000f3fe608060405234801561001057600080fd5b5060043610610112576000357c010000000000000000000000000000000000000000000000000000000090048063715018a6116100b4578063e09b8c7911610083578063e09b8c7914610485578063ed8a16081461048f578063ee74c678146104d3578063f2fde38b146104dd57610112565b8063715018a6146103565780638d337b81146103605780638da5cb5b146103b8578063b647990a1461040257610112565b80632f95355b116100f05780632f95355b146101fd578063329a8cfa146102b857806353302887146102c2578063609ff1bd146102cc57610112565b8063013cf08b14610117578063045c6ce0146101c557806317a0ad8e146101f3575b600080fd5b6101436004803603602081101561012d57600080fd5b8101908080359060200190929190505050610521565b6040518080602001838152602001828103825284818151815260200191508051906020019080838360005b8381101561018957808201518184015260208101905061016e565b50505050905090810190601f1680156101b65780820380516001836020036101000a031916815260200191505b50935050505060405180910390f35b6101f1600480360360208110156101db57600080fd5b81019080803590602001909291905050506105ea565b005b6101fb6108f1565b005b6102b66004803603602081101561021357600080fd5b810190808035906020019064010000000081111561023057600080fd5b82018360208201111561024257600080fd5b8035906020019184600183028401116401000000008311171561026457600080fd5b91908080601f016020809104026020016040519081016040528093929190818152602001838380828437600081840152601f19601f820116905080830192505050505050509192919290505050610a70565b005b6102c0610c9a565b005b6102ca610dad565b005b6102d4610f2c565b6040518080602001838152602001828103825284818151815260200191508051906020019080838360005b8381101561031a5780820151818401526020810190506102ff565b50505050905090810190601f1680156103475780820380516001836020036101000a031916815260200191505b50935050505060405180910390f35b61035e610fd6565b005b6103a26004803603602081101561037657600080fd5b81019080803573ffffffffffffffffffffffffffffffffffffffff16906020019092919050505061115e565b6040518082815260200191505060405180910390f35b6103c0611324565b604051808273ffffffffffffffffffffffffffffffffffffffff1673ffffffffffffffffffffffffffffffffffffffff16815260200191505060405180910390f35b61040a61134d565b6040518080602001828103825283818151815260200191508051906020019080838360005b8381101561044a57808201518184015260208101905061042f565b50505050905090810190601f1680156104775780820380516001836020036101000a031916815260200191505b509250505060405180910390f35b61048d61156f565b005b6104d1600480360360208110156104a557600080fd5b81019080803573ffffffffffffffffffffffffffffffffffffffff169060200190929190505050611749565b005b6104db611a16565b005b61051f600480360360208110156104f357600080fd5b81019080803573ffffffffffffffffffffffffffffffffffffffff169060200190929190505050611b95565b005b6003818154811061052e57fe5b9060005260206000209060020201600091509050806000018054600181600116156101000203166002900480601f0160208091040260200160405190810160405280929190818152602001828054600181600116156101000203166002900480156105da5780601f106105af576101008083540402835291602001916105da565b820191906000526020600020905b8154815290600101906020018083116105bd57829003601f168201915b5050505050908060010154905082565b600460003373ffffffffffffffffffffffffffffffffffffffff1673ffffffffffffffffffffffffffffffffffffffff16815260200190815260200160002060000160009054906101000a900460ff1661068f576040517f08c379a00000000000000000000000000000000000000000000000000000000081526004018080602001828103825260288152602001806120aa6028913960400191505060405180910390fd5b600460003373ffffffffffffffffffffffffffffffffffffffff1673ffffffffffffffffffffffffffffffffffffffff16815260200190815260200160002060000160019054906101000a900460ff1615610735576040517f08c379a00000000000000000000000000000000000000000000000000000000081526004018080602001828103825260248152602001806121206024913960400191505060405180910390fd5b6003600581111561074257fe5b600060149054906101000a900460ff16600581111561075d57fe5b146107b3576040517f08c379a000000000000000000000000000000000000000000000000000000000815260040180806020018281038252602a8152602001806120f6602a913960400191505060405180910390fd5b6001600460003373ffffffffffffffffffffffffffffffffffffffff1673ffffffffffffffffffffffffffffffffffffffff16815260200190815260200160002060000160016101000a81548160ff02191690831515021790555080600460003373ffffffffffffffffffffffffffffffffffffffff1673ffffffffffffffffffffffffffffffffffffffff168152602001908152602001600020600101819055506003818154811061086257fe5b9060005260206000209060020201600101600081548092919060010191905055507f4d99b957a2bc29a30ebd96a7be8e68fe50a3c701db28a91436490b7d53870ca43382604051808373ffffffffffffffffffffffffffffffffffffffff1673ffffffffffffffffffffffffffffffffffffffff1681526020018281526020019250505060405180910390a150565b6108f9611da2565b73ffffffffffffffffffffffffffffffffffffffff166000809054906101000a900473ffffffffffffffffffffffffffffffffffffffff1673ffffffffffffffffffffffffffffffffffffffff16146109ba576040517f08c379a00000000000000000000000000000000000000000000000000000000081526004018080602001828103825260208152602001807f4f776e61626c653a2063616c6c6572206973206e6f7420746865206f776e657281525060200191505060405180910390fd5b600360058111156109c757fe5b600060149054906101000a900460ff1660058111156109e257fe5b14610a38576040517f08c379a00000000000000000000000000000000000000000000000000000000081526004018080602001828103825260258152602001806121766025913960400191505060405180910390fd5b610a426004611daa565b7fc379d349a6301baf50fb2f98d829f4ae10b1cdb7c66f4e4d8117302df7b8cd4c60405160405180910390a1565b606460038054905010610ace576040517f08c379a000000000000000000000000000000000000000000000000000000000815260040180806020018281038252602e81526020018061219b602e913960400191505060405180910390fd5b600460003373ffffffffffffffffffffffffffffffffffffffff1673ffffffffffffffffffffffffffffffffffffffff16815260200190815260200160002060000160009054906101000a900460ff16610b73576040517f08c379a00000000000000000000000000000000000000000000000000000000081526004018080602001828103825260288152602001806120aa6028913960400191505060405180910390fd5b60016005811115610b8057fe5b600060149054906101000a900460ff166005811115610b9b57fe5b14610bf1576040517f08c379a0000000000000000000000000000000000000000000000000000000008152600401808060200182810382526032815260200180611fd66032913960400191505060405180910390fd5b60036040518060400160405280838152602001600081525090806001815401808255809150506001900390600052602060002090600202016000909190919091506000820151816000019080519060200190610c4e929190611e3f565b506020820151816001015550507f92e393e9b54e2f801d3ea4beb0c5e71a21cc34a5d34b77d0fb8a3aa1650dc18f6003805490506040518082815260200191505060405180910390a150565b610ca2611da2565b73ffffffffffffffffffffffffffffffffffffffff166000809054906101000a900473ffffffffffffffffffffffffffffffffffffffff1673ffffffffffffffffffffffffffffffffffffffff1614610d63576040517f08c379a00000000000000000000000000000000000000000000000000000000081526004018080602001828103825260208152602001807f4f776e61626c653a2063616c6c6572206973206e6f7420746865206f776e657281525060200191505060405180910390fd5b60008060146101000a81548160ff02191690836005811115610d8157fe5b02179055506000600581905550600160008082016000610da19190611ebf565b60018201600090555050565b610db5611da2565b73ffffffffffffffffffffffffffffffffffffffff166000809054906101000a900473ffffffffffffffffffffffffffffffffffffffff1673ffffffffffffffffffffffffffffffffffffffff1614610e76576040517f08c379a00000000000000000000000000000000000000000000000000000000081526004018080602001828103825260208152602001807f4f776e61626c653a2063616c6c6572206973206e6f7420746865206f776e657281525060200191505060405180910390fd5b60016005811115610e8357fe5b600060149054906101000a900460ff166005811115610e9e57fe5b14610ef4576040517f08c379a000000000000000000000000000000000000000000000000000000000815260040180806020018281038252602d8152602001806121c9602d913960400191505060405180910390fd5b610efe6002611daa565b7f240cb87b2e4df4c318e72bd714d45a9cad60249e883ff56b1fffd83a4595a8fa60405160405180910390a1565b6001806000018054600181600116156101000203166002900480601f016020809104026020016040519081016040528092919081815260200182805460018160011615610100020316600290048015610fc65780601f10610f9b57610100808354040283529160200191610fc6565b820191906000526020600020905b815481529060010190602001808311610fa957829003601f168201915b5050505050908060010154905082565b610fde611da2565b73ffffffffffffffffffffffffffffffffffffffff166000809054906101000a900473ffffffffffffffffffffffffffffffffffffffff1673ffffffffffffffffffffffffffffffffffffffff161461109f576040517f08c379a00000000000000000000000000000000000000000000000000000000081526004018080602001828103825260208152602001807f4f776e61626c653a2063616c6c6572206973206e6f7420746865206f776e657281525060200191505060405180910390fd5b600073ffffffffffffffffffffffffffffffffffffffff166000809054906101000a900473ffffffffffffffffffffffffffffffffffffffff1673ffffffffffffffffffffffffffffffffffffffff167f8be0079c531659141344cd1fd0a4f28419497f9722a3daafe3b4186f6b6457e060405160405180910390a360008060006101000a81548173ffffffffffffffffffffffffffffffffffffffff021916908373ffffffffffffffffffffffffffffffffffffffff160217905550565b6000600460003373ffffffffffffffffffffffffffffffffffffffff1673ffffffffffffffffffffffffffffffffffffffff16815260200190815260200160002060000160009054906101000a900460ff16611222576040517f08c379a00000000000000000000000000000000000000000000000000000000081526004018080602001828103825260198152602001807f536f72727920796f75277265206e6f74206120766f746572270000000000000081525060200191505060405180910390fd5b6000600460008473ffffffffffffffffffffffffffffffffffffffff1673ffffffffffffffffffffffffffffffffffffffff16815260200190815260200160002060010154116112da576040517f08c379a00000000000000000000000000000000000000000000000000000000081526004018080602001828103825260208152602001807f5468697320766f74657220686173206e6f7420616c726561647920766f74656481525060200191505060405180910390fd5b600460003373ffffffffffffffffffffffffffffffffffffffff1673ffffffffffffffffffffffffffffffffffffffff168152602001908152602001600020600101549050919050565b60008060009054906101000a900473ffffffffffffffffffffffffffffffffffffffff16905090565b6060611357611da2565b73ffffffffffffffffffffffffffffffffffffffff166000809054906101000a900473ffffffffffffffffffffffffffffffffffffffff1673ffffffffffffffffffffffffffffffffffffffff1614611418576040517f08c379a00000000000000000000000000000000000000000000000000000000081526004018080602001828103825260208152602001807f4f776e61626c653a2063616c6c6572206973206e6f7420746865206f776e657281525060200191505060405180910390fd5b6004600581111561142557fe5b600060149054906101000a900460ff16600581111561144057fe5b14611496576040517f08c379a00000000000000000000000000000000000000000000000000000000081526004018080602001828103825260248152602001806120d26024913960400191505060405180910390fd5b600080600090505b6003805490508110156114e25781600382815481106114b957fe5b90600052602060002090600202016001015411156114d5578091505b808060010191505061149e565b50600381815481106114f057fe5b9060005260206000209060020201600160008201816000019080546001816001161561010002031660029004611527929190611f07565b506001820154816001015590505061153f6005611daa565b7f0e5e95ff8725ab3e7a4b6b59998a4c344c2aa8d1485f5e60cb7f337768e6134760405160405180910390a15090565b611577611da2565b73ffffffffffffffffffffffffffffffffffffffff166000809054906101000a900473ffffffffffffffffffffffffffffffffffffffff1673ffffffffffffffffffffffffffffffffffffffff1614611638576040517f08c379a00000000000000000000000000000000000000000000000000000000081526004018080602001828103825260208152602001807f4f776e61626c653a2063616c6c6572206973206e6f7420746865206f776e657281525060200191505060405180910390fd5b6000600581111561164557fe5b600060149054906101000a900460ff16600581111561166057fe5b146116b6576040517f08c379a000000000000000000000000000000000000000000000000000000000815260040180806020018281038252602e81526020018061207c602e913960400191505060405180910390fd5b600260055411611711576040517f08c379a00000000000000000000000000000000000000000000000000000000081526004018080602001828103825260328152602001806121446032913960400191505060405180910390fd5b61171b6001611daa565b7f344c25562921d075a298d34b6dd1fd00d36ff293974539dfd4a8c625d9f0064c60405160405180910390a1565b611751611da2565b73ffffffffffffffffffffffffffffffffffffffff166000809054906101000a900473ffffffffffffffffffffffffffffffffffffffff1673ffffffffffffffffffffffffffffffffffffffff1614611812576040517f08c379a00000000000000000000000000000000000000000000000000000000081526004018080602001828103825260208152602001807f4f776e61626c653a2063616c6c6572206973206e6f7420746865206f776e657281525060200191505060405180910390fd5b600460008273ffffffffffffffffffffffffffffffffffffffff1673ffffffffffffffffffffffffffffffffffffffff16815260200190815260200160002060000160009054906101000a900460ff16156118b8576040517f08c379a0000000000000000000000000000000000000000000000000000000008152600401808060200182810382526022815260200180611fb46022913960400191505060405180910390fd5b600060058111156118c557fe5b600060149054906101000a900460ff1660058111156118e057fe5b14611953576040517f08c379a000000000000000000000000000000000000000000000000000000000815260040180806020018281038252601b8152602001807f546f6f206c61746520746f20726567697374657220766f74657273000000000081525060200191505060405180910390fd5b60405180606001604052806001151581526020016000151581526020016000815250600460008373ffffffffffffffffffffffffffffffffffffffff1673ffffffffffffffffffffffffffffffffffffffff16815260200190815260200160002060008201518160000160006101000a81548160ff02191690831515021790555060208201518160000160016101000a81548160ff0219169083151502179055506040820151816001015590505060056000815480929190600101919050555050565b611a1e611da2565b73ffffffffffffffffffffffffffffffffffffffff166000809054906101000a900473ffffffffffffffffffffffffffffffffffffffff1673ffffffffffffffffffffffffffffffffffffffff1614611adf576040517f08c379a00000000000000000000000000000000000000000000000000000000081526004018080602001828103825260208152602001807f4f776e61626c653a2063616c6c6572206973206e6f7420746865206f776e657281525060200191505060405180910390fd5b60026005811115611aec57fe5b600060149054906101000a900460ff166005811115611b0757fe5b14611b5d576040517f08c379a000000000000000000000000000000000000000000000000000000000815260040180806020018281038252604e81526020018061202e604e913960600191505060405180910390fd5b611b676003611daa565b7f1b8e19a458c1bcd88553332c518cc5c4e2d5793e712ee766d4f1c14f672ef1f560405160405180910390a1565b611b9d611da2565b73ffffffffffffffffffffffffffffffffffffffff166000809054906101000a900473ffffffffffffffffffffffffffffffffffffffff1673ffffffffffffffffffffffffffffffffffffffff1614611c5e576040517f08c379a00000000000000000000000000000000000000000000000000000000081526004018080602001828103825260208152602001807f4f776e61626c653a2063616c6c6572206973206e6f7420746865206f776e657281525060200191505060405180910390fd5b600073ffffffffffffffffffffffffffffffffffffffff168173ffffffffffffffffffffffffffffffffffffffff161415611ce4576040517f08c379a00000000000000000000000000000000000000000000000000000000081526004018080602001828103825260268152602001806120086026913960400191505060405180910390fd5b8073ffffffffffffffffffffffffffffffffffffffff166000809054906101000a900473ffffffffffffffffffffffffffffffffffffffff1673ffffffffffffffffffffffffffffffffffffffff167f8be0079c531659141344cd1fd0a4f28419497f9722a3daafe3b4186f6b6457e060405160405180910390a3806000806101000a81548173ffffffffffffffffffffffffffffffffffffffff021916908373ffffffffffffffffffffffffffffffffffffffff16021790555050565b600033905090565b60008060149054906101000a900460ff16905081600060146101000a81548160ff02191690836005811115611ddb57fe5b02179055507f0a97a4ee45751e2abf3e4fc8946939630b11b371ea8ae39ccdc3056e98f5cc3f818360405180836005811115611e1357fe5b60ff168152602001826005811115611e2757fe5b60ff1681526020019250505060405180910390a15050565b828054600181600116156101000203166002900490600052602060002090601f016020900481019282601f10611e8057805160ff1916838001178555611eae565b82800160010185558215611eae579182015b82811115611ead578251825591602001919060010190611e92565b5b509050611ebb9190611f8e565b5090565b50805460018160011615610100020316600290046000825580601f10611ee55750611f04565b601f016020900490600052602060002090810190611f039190611f8e565b5b50565b828054600181600116156101000203166002900490600052602060002090601f016020900481019282601f10611f405780548555611f7d565b82800160010185558215611f7d57600052602060002091601f016020900482015b82811115611f7c578254825591600101919060010190611f61565b5b509050611f8a9190611f8e565b5090565b611fb091905b80821115611fac576000816000905550600101611f94565b5090565b9056fe546865206164647265737320697320616c726561647920726567697374657265642150726f706f73616c7320526567697374726174696f6e20686173206e6f742073746172746564206f7220697320656e6465644f776e61626c653a206e6577206f776e657220697320746865207a65726f2061646472657373596f752063616e206f6e6c7920737461727420566f74696e672053657373696f6e206f6e63652050726f706f73616c7320526567697374726174696f6e20686173206265656e2073746f70706564596f752063616e206f6e6c792073746172742050726f706f73616c7320526567697374726174696f6e206f6e6365536f72727920796f752063616e277420706172746963697061746520746f207468697320766f7465596f752073686f756c642073746f7020566f74696e672053657373696f6e206669727374566f74696e672053657373696f6e20686173206e6f742073746172746564206f7220697320656e646564536f72727920796f752063616e6e6f7420766f7465206d6f7265207468616e206f6e6365596f752073686f756c6420726567697374657220736f6d6520766f7465727320666972737420286174206c65617374203329596f752063616e206f6e6c792073746f7020566f74696e672053657373696f6e206f6e6365536f7272792077652063616e6e6f7420616363657074206d6f7265207468616e203130302070726f706f73616c73596f752063616e206f6e6c792073746f702050726f706f73616c7320526567697374726174696f6e206f6e6365a2646970667358221220b40b3a5af60eef2897ac2186187329dfdcb73fca18c0fa500fdd9699b6df5b8164736f6c634300060b0033",
  "immutableReferences": {},
  "source": "// SPDX-License-Identifier: MIT\r\npragma solidity 0.6.11;\r\n\r\nimport \"@OpenZeppelin/contracts/access/Ownable.sol\";\r\n\r\n/// @title Formation Alyra \"Dveloppeur Blockchain\" - Dfi - Systme de vote\r\n/// @author Jrme Gauthier\r\n/// @notice Mise en oeuvre d'un systme de vote simple\r\n/// @dev Par rapport  l'nonc initial j'ai simplement ajout la fonction resetVote()\r\n/// accessible par le owner du contract seulement\r\ncontract Voting is Ownable {\r\n\r\n    struct Voter {\r\n        bool isRegistered;\r\n        bool hasVoted;\r\n        uint votedProposalId;\r\n    }\r\n\r\n    struct Proposal {\r\n        string description;\r\n        uint voteCount;\r\n    }\r\n    \r\n    enum WorkflowStatus {\r\n        RegisteringVoters,\r\n        ProposalsRegistrationStarted,\r\n        ProposalsRegistrationEnded,\r\n        VotingSessionStarted,\r\n        VotingSessionEnded,\r\n        VotesTallied\r\n    }\r\n    \r\n    WorkflowStatus currentWorkflowStatus = WorkflowStatus.RegisteringVoters;\r\n    Proposal public winningProposal; // Tout le monde peut vrifier la proposition gagnante\r\n    Proposal[] public proposals; // we will use votedProposalId as key \r\n    mapping(address => Voter) voters;\r\n    uint numberOfVoters;\r\n    \r\n    event ProposalsRegistrationStarted(); // ok used in startProposalsRegistration function\r\n    event ProposalsRegistrationEnded(); // ok used in stopProposalsRegistration function\r\n    event ProposalRegistered(uint proposalId); // ok used in registerProposal function \r\n    event VotingSessionStarted(); // ok used in startVotingSession function\r\n    event VotingSessionEnded(); // ok used in stopVotingSession function\r\n    event Voted (address voter, uint proposalId); // ok used in voteForProposal function\r\n    event VotesTallied(); // ok used in countVotes function\r\n    event WorkflowStatusChange(WorkflowStatus previousStatus, WorkflowStatus newStatus);// used in setNewWorkflowStatus\r\n\r\n    function resetVote () public onlyOwner {\r\n        currentWorkflowStatus = WorkflowStatus.RegisteringVoters;\r\n        numberOfVoters = 0;\r\n        delete winningProposal;\r\n    }\r\n    \r\n    /// @notice L'administrateur du vote enregistre une liste blanche d'lecteurs identifis par leur adresse Ethereum.\r\n    /// @dev onlyOwner pour que seul le owner du contract puisse enregistrer des lecteurs\r\n    /// @param _address l'adresse de l'lecteur\r\n    function registerVoters(address _address) public onlyOwner {\r\n        require(!voters[_address].isRegistered, \"The address is already registered!\");\r\n        require(currentWorkflowStatus == WorkflowStatus.RegisteringVoters, \"Too late to register voters\");\r\n        voters[_address] = Voter(true, false, 0);\r\n        numberOfVoters++;\r\n    }\r\n\r\n    /// @notice L'administrateur du vote commence la session d'enregistrement de la proposition.\r\n    function startProposalsRegistration() public onlyOwner {\r\n        require(currentWorkflowStatus == WorkflowStatus.RegisteringVoters,\r\n                \"You can only start Proposals Registration once\");\r\n        require(numberOfVoters > 2, \"You should register some voters first (at least 3)\");\r\n        setNewWorkflowStatus(WorkflowStatus.ProposalsRegistrationStarted);\r\n        emit ProposalsRegistrationStarted();\r\n    }\r\n\r\n    /// @notice Les lecteurs inscrits sont autoriss  enregistrer leurs propositions\r\n    /// pendant que la session d'enregistrement est active.\r\n    function registerProposal(string memory proposalDescription) public {\r\n        require(proposals.length<100, \"Sorry we cannot accept more than 100 proposals\");\r\n        require(voters[msg.sender].isRegistered, \"Sorry you can't participate to this vote\");\r\n        require(currentWorkflowStatus == WorkflowStatus.ProposalsRegistrationStarted,\r\n                \"Proposals Registration has not started or is ended\");\r\n        proposals.push(Proposal(proposalDescription, 0));\r\n        emit ProposalRegistered(proposals.length);\r\n    }\r\n\r\n    /// @notice L'administrateur de vote met fin  la session d'enregistrement des propositions.\r\n    function stopProposalsRegistration() public onlyOwner {\r\n        require(currentWorkflowStatus == WorkflowStatus.ProposalsRegistrationStarted,\r\n                \"You can only stop Proposals Registration once\");\r\n        setNewWorkflowStatus(WorkflowStatus.ProposalsRegistrationEnded);\r\n        emit ProposalsRegistrationEnded();\r\n    }\r\n    \r\n    /// @notice L'administrateur du vote commence la session de vote.\r\n    function startVotingSession() public onlyOwner {\r\n        require(currentWorkflowStatus == WorkflowStatus.ProposalsRegistrationEnded,\r\n                \"You can only start Voting Session once Proposals Registration has been stopped\");\r\n        setNewWorkflowStatus(WorkflowStatus.VotingSessionStarted);\r\n        emit VotingSessionStarted();\r\n    }\r\n\r\n    /// @notice Les lecteurs inscrits votent pour leurs propositions prfres.\r\n    function voteForProposal(uint _proposalId) public {\r\n        require(voters[msg.sender].isRegistered, \"Sorry you can't participate to this vote\");\r\n        require(!voters[msg.sender].hasVoted, \"Sorry you cannot vote more than once\");\r\n        require(currentWorkflowStatus == WorkflowStatus.VotingSessionStarted,\r\n                \"Voting Session has not started or is ended\");\r\n        voters[msg.sender].hasVoted = true;\r\n        voters[msg.sender].votedProposalId = _proposalId;\r\n        proposals[_proposalId].voteCount++; // increment the vote count for this proposal id\r\n        emit Voted(msg.sender, _proposalId);\r\n    }\r\n\r\n    /// @notice L'administrateur du vote met fin  la session de vote.\r\n    function stopVotingSession() public onlyOwner {\r\n        require(currentWorkflowStatus == WorkflowStatus.VotingSessionStarted, \"You can only stop Voting Session once\");\r\n        setNewWorkflowStatus(WorkflowStatus.VotingSessionEnded);\r\n        emit VotingSessionEnded();\r\n    }\r\n\r\n    /// @notice L'administrateur du vote comptabilise les votes.\r\n    function countVotes() public onlyOwner returns (string memory) {\r\n        require(currentWorkflowStatus == WorkflowStatus.VotingSessionEnded, \"You should stop Voting Session first\");\r\n        uint winningProposalId;\r\n        for (uint currentProposalId = 0; currentProposalId < proposals.length; currentProposalId++) {\r\n            if (proposals[currentProposalId].voteCount > winningProposalId) {\r\n                winningProposalId = currentProposalId;\r\n            }\r\n        }        \r\n        winningProposal = proposals[winningProposalId];\r\n        setNewWorkflowStatus(WorkflowStatus.VotesTallied);\r\n        emit VotesTallied();\r\n    }\r\n    \r\n    /// @notice Le vote n'est pas secret ; chaque lecteur peut voir les votes des autres.\r\n    function getVote(address voterAddress) public view returns (uint) {\r\n        require(voters[msg.sender].isRegistered, \"Sorry you're not a voter'\");\r\n        require(voters[voterAddress].votedProposalId > 0, \"This voter has not already voted\");\r\n        return  voters[msg.sender].votedProposalId;\r\n    }\r\n\r\n    /// @notice passage d'un statut  l'autre\r\n    function setNewWorkflowStatus (WorkflowStatus newWorkflowStatus) private {\r\n        WorkflowStatus previousWorkflowStatus = currentWorkflowStatus;\r\n        currentWorkflowStatus = newWorkflowStatus;\r\n        emit WorkflowStatusChange(previousWorkflowStatus, newWorkflowStatus);\r\n    }\r\n    \r\n}",
  "sourcePath": "C:/Appli.crypto/Alyra-Challenges/system-de-vote/contracts/voting.sol",
  "compiler": {
    "name": "solc",
    "version": "0.6.11+commit.5ef660b1.Emscripten.clang"
  },
  "schemaVersion": "3.4.1",
  "updatedAt": "2021-06-23T06:51:08.344Z",
  "networkType": "ethereum",
  "devdoc": {
    "author": "Jrme Gauthier",
    "details": "Par rapport  l'nonc initial j'ai simplement ajout la fonction resetVote() accessible par le owner du contract seulement",
    "kind": "dev",
    "methods": {
      "owner()": {
        "details": "Returns the address of the current owner."
      },
      "registerVoters(address)": {
        "details": "onlyOwner pour que seul le owner du contract puisse enregistrer des lecteurs",
        "params": {
          "_address": "l'adresse de l'lecteur"
        }
      },
      "renounceOwnership()": {
        "details": "Leaves the contract without owner. It will not be possible to call `onlyOwner` functions anymore. Can only be called by the current owner. NOTE: Renouncing ownership will leave the contract without an owner, thereby removing any functionality that is only available to the owner."
      },
      "transferOwnership(address)": {
        "details": "Transfers ownership of the contract to a new account (`newOwner`). Can only be called by the current owner."
      }
    },
    "title": "Formation Alyra \"Dveloppeur Blockchain\" - Dfi - Systme de vote",
    "version": 1
  },
  "userdoc": {
    "kind": "user",
    "methods": {
      "countVotes()": {
        "notice": "L'administrateur du vote comptabilise les votes."
      },
      "getVote(address)": {
        "notice": "Le vote n'est pas secret ; chaque lecteur peut voir les votes des autres."
      },
      "registerProposal(string)": {
        "notice": "Les lecteurs inscrits sont autoriss  enregistrer leurs propositions pendant que la session d'enregistrement est active."
      },
      "registerVoters(address)": {
        "notice": "L'administrateur du vote enregistre une liste blanche d'lecteurs identifis par leur adresse Ethereum."
      },
      "startProposalsRegistration()": {
        "notice": "L'administrateur du vote commence la session d'enregistrement de la proposition."
      },
      "startVotingSession()": {
        "notice": "L'administrateur du vote commence la session de vote."
      },
      "stopProposalsRegistration()": {
        "notice": "L'administrateur de vote met fin  la session d'enregistrement des propositions."
      },
      "stopVotingSession()": {
        "notice": "L'administrateur du vote met fin  la session de vote."
      },
      "voteForProposal(uint256)": {
        "notice": "Les lecteurs inscrits votent pour leurs propositions prfres."
      }
    },
    "notice": "Mise en oeuvre d'un systme de vote simple",
    "version": 1
  }
}